{"abi":[{"type":"constructor","inputs":[],"stateMutability":"nonpayable"},{"type":"function","name":"ACTION_BASIC","inputs":[],"outputs":[{"name":"","type":"uint8","internalType":"uint8"}],"stateMutability":"view"},{"type":"function","name":"ACTION_GOVERN","inputs":[],"outputs":[{"name":"","type":"uint8","internalType":"uint8"}],"stateMutability":"view"},{"type":"function","name":"ACTION_LEVERAGE","inputs":[],"outputs":[{"name":"","type":"uint8","internalType":"uint8"}],"stateMutability":"view"},{"type":"function","name":"ACTION_TRADE","inputs":[],"outputs":[{"name":"","type":"uint8","internalType":"uint8"}],"stateMutability":"view"},{"type":"function","name":"ACTION_WITHDRAW","inputs":[],"outputs":[{"name":"","type":"uint8","internalType":"uint8"}],"stateMutability":"view"},{"type":"function","name":"can","inputs":[{"name":"wallet","type":"address","internalType":"address"},{"name":"actionType","type":"uint8","internalType":"uint8"}],"outputs":[{"name":"","type":"bool","internalType":"bool"}],"stateMutability":"view"},{"type":"function","name":"getTier","inputs":[{"name":"wallet","type":"address","internalType":"address"}],"outputs":[{"name":"","type":"uint8","internalType":"uint8"}],"stateMutability":"view"},{"type":"function","name":"owner","inputs":[],"outputs":[{"name":"","type":"address","internalType":"address"}],"stateMutability":"view"},{"type":"function","name":"setTier","inputs":[{"name":"wallet","type":"address","internalType":"address"},{"name":"tier","type":"uint8","internalType":"uint8"}],"outputs":[],"stateMutability":"nonpayable"},{"type":"function","name":"setTierBatch","inputs":[{"name":"wallets","type":"address[]","internalType":"address[]"},{"name":"newTiers","type":"uint8[]","internalType":"uint8[]"}],"outputs":[],"stateMutability":"nonpayable"},{"type":"function","name":"transferOwnership","inputs":[{"name":"newOwner","type":"address","internalType":"address"}],"outputs":[],"stateMutability":"nonpayable"},{"type":"event","name":"OwnershipTransferred","inputs":[{"name":"oldOwner","type":"address","indexed":true,"internalType":"address"},{"name":"newOwner","type":"address","indexed":true,"internalType":"address"}],"anonymous":false},{"type":"event","name":"TierUpdated","inputs":[{"name":"wallet","type":"address","indexed":true,"internalType":"address"},{"name":"oldTier","type":"uint8","indexed":false,"internalType":"uint8"},{"name":"newTier","type":"uint8","indexed":false,"internalType":"uint8"}],"anonymous":false}],"bytecode":{"object":"0x608060405234801561001057600080fd5b50600080546001600160a01b03191633179055610960806100326000396000f3fe608060405234801561001057600080fd5b50600436106100a95760003560e01c806393e2282d1161007157806393e2282d1461011d5780639e9dc4e014610130578063b26914d014610153578063b45aae521461015b578063f2fde38b14610187578063fbb0c34c1461019a57600080fd5b806325d70f78146100ae57806336cff09f146100cd5780634e2b9b8f146100d557806351ae71fb146100ea5780638da5cb5b146100f2575b600080fd5b6100b6600481565b60405160ff90911681526020015b60405180910390f35b6100b6600081565b6100e86100e3366004610776565b6101a2565b005b6100b6600381565b600054610105906001600160a01b031681565b6040516001600160a01b0390911681526020016100c4565b6100e861012b36600461080f565b6104c2565b61014361013e36600461080f565b6105d4565b60405190151581526020016100c4565b6100b6600281565b6100b6610169366004610842565b6001600160a01b031660009081526001602052604090205460ff1690565b6100e8610195366004610842565b61067f565b6100b6600181565b6000546001600160a01b031633146101d55760405162461bcd60e51b81526004016101cc90610864565b60405180910390fd5b8281146102245760405162461bcd60e51b815260206004820152601b60248201527f5269736b4f7261636c653a206c656e677468206d69736d61746368000000000060448201526064016101cc565b60c88311156102755760405162461bcd60e51b815260206004820152601b60248201527f5269736b4f7261636c653a20626174636820746f6f206c61726765000000000060448201526064016101cc565b60005b838110156104bb5760008585838181106102945761029461089b565b90506020020160208101906102a99190610842565b6001600160a01b0316036102cf5760405162461bcd60e51b81526004016101cc906108b1565b60048383838181106102e3576102e361089b565b90506020020160208101906102f891906108e8565b60ff1611156103495760405162461bcd60e51b815260206004820152601d60248201527f5269736b4f7261636c653a2074696572206f7574206f662072616e676500000060448201526064016101cc565b6000600160008787858181106103615761036161089b565b90506020020160208101906103769190610842565b6001600160a01b0316815260208101919091526040016000205460ff1690508383838181106103a7576103a761089b565b90506020020160208101906103bc91906108e8565b600160008888868181106103d2576103d261089b565b90506020020160208101906103e79190610842565b6001600160a01b031681526020810191909152604001600020805460ff191660ff929092169190911790558585838181106104245761042461089b565b90506020020160208101906104399190610842565b6001600160a01b03167f088bb4000d4f986d320e37aeeddc92836b4acae65c337abd0b79067096d33fce828686868181106104765761047661089b565b905060200201602081019061048b91906108e8565b6040805160ff93841681529290911660208301520160405180910390a250806104b381610903565b915050610278565b5050505050565b6000546001600160a01b031633146104ec5760405162461bcd60e51b81526004016101cc90610864565b6001600160a01b0382166105125760405162461bcd60e51b81526004016101cc906108b1565b60048160ff1611156105665760405162461bcd60e51b815260206004820152601d60248201527f5269736b4f7261636c653a2074696572206f7574206f662072616e676500000060448201526064016101cc565b6001600160a01b038216600081815260016020908152604091829020805460ff19811660ff878116918217909355845192909116808352928201529092917f088bb4000d4f986d320e37aeeddc92836b4acae65c337abd0b79067096d33fce910160405180910390a2505050565b6001600160a01b03821660009081526001602052604081205460ff908116908316610603575060019050610679565b60001960ff84160161061f5760028160ff161015915050610679565b60011960ff84160161063b5760038160ff161015915050610679565b60021960ff8416016106575760038160ff161015915050610679565b60031960ff8416016106735760028160ff161015915050610679565b60009150505b92915050565b6000546001600160a01b031633146106a95760405162461bcd60e51b81526004016101cc90610864565b6001600160a01b0381166106cf5760405162461bcd60e51b81526004016101cc906108b1565b600080546040516001600160a01b03808516939216917f8be0079c531659141344cd1fd0a4f28419497f9722a3daafe3b4186f6b6457e091a3600080546001600160a01b0319166001600160a01b0392909216919091179055565b60008083601f84011261073c57600080fd5b50813567ffffffffffffffff81111561075457600080fd5b6020830191508360208260051b850101111561076f57600080fd5b9250929050565b6000806000806040858703121561078c57600080fd5b843567ffffffffffffffff808211156107a457600080fd5b6107b08883890161072a565b909650945060208701359150808211156107c957600080fd5b506107d68782880161072a565b95989497509550505050565b80356001600160a01b03811681146107f957600080fd5b919050565b803560ff811681146107f957600080fd5b6000806040838503121561082257600080fd5b61082b836107e2565b9150610839602084016107fe565b90509250929050565b60006020828403121561085457600080fd5b61085d826107e2565b9392505050565b6020808252601f908201527f5269736b4f7261636c653a2063616c6c6572206973206e6f74206f776e657200604082015260600190565b634e487b7160e01b600052603260045260246000fd5b60208082526018908201527f5269736b4f7261636c653a207a65726f20616464726573730000000000000000604082015260600190565b6000602082840312156108fa57600080fd5b61085d826107fe565b60006001820161092357634e487b7160e01b600052601160045260246000fd5b506001019056fea26469706673582212201f3e609ae8b7d2baba60ee9a8289796eabd03056f32fac5397d92b62e745024c64736f6c63430008130033","linkReferences":{}},"methodIdentifiers":{"ACTION_BASIC()":"36cff09f","ACTION_GOVERN()":"51ae71fb","ACTION_LEVERAGE()":"b26914d0","ACTION_TRADE()":"fbb0c34c","ACTION_WITHDRAW()":"25d70f78","can(address,uint8)":"9e9dc4e0","getTier(address)":"b45aae52","owner()":"8da5cb5b","setTier(address,uint8)":"93e2282d","setTierBatch(address[],uint8[])":"4e2b9b8f","transferOwnership(address)":"f2fde38b"},"id":19}