{"abi":[{"type":"constructor","inputs":[{"name":"initialUpdater","type":"address","internalType":"address"}],"stateMutability":"nonpayable"},{"type":"function","name":"ACTION_BASIC","inputs":[],"outputs":[{"name":"","type":"uint8","internalType":"uint8"}],"stateMutability":"view"},{"type":"function","name":"ACTION_GOVERN","inputs":[],"outputs":[{"name":"","type":"uint8","internalType":"uint8"}],"stateMutability":"view"},{"type":"function","name":"ACTION_LEVERAGE","inputs":[],"outputs":[{"name":"","type":"uint8","internalType":"uint8"}],"stateMutability":"view"},{"type":"function","name":"ACTION_TRADE","inputs":[],"outputs":[{"name":"","type":"uint8","internalType":"uint8"}],"stateMutability":"view"},{"type":"function","name":"ACTION_WITHDRAW","inputs":[],"outputs":[{"name":"","type":"uint8","internalType":"uint8"}],"stateMutability":"view"},{"type":"function","name":"MAX_BATCH","inputs":[],"outputs":[{"name":"","type":"uint256","internalType":"uint256"}],"stateMutability":"view"},{"type":"function","name":"acceptOwnership","inputs":[],"outputs":[],"stateMutability":"nonpayable"},{"type":"function","name":"can","inputs":[{"name":"wallet","type":"address","internalType":"address"},{"name":"actionType","type":"uint8","internalType":"uint8"}],"outputs":[{"name":"","type":"bool","internalType":"bool"}],"stateMutability":"view"},{"type":"function","name":"cancelOwnershipTransfer","inputs":[],"outputs":[],"stateMutability":"nonpayable"},{"type":"function","name":"deleteTier","inputs":[{"name":"wallet","type":"address","internalType":"address"}],"outputs":[],"stateMutability":"nonpayable"},{"type":"function","name":"getTier","inputs":[{"name":"wallet","type":"address","internalType":"address"}],"outputs":[{"name":"","type":"uint8","internalType":"uint8"}],"stateMutability":"view"},{"type":"function","name":"getTierBatch","inputs":[{"name":"wallets","type":"address[]","internalType":"address[]"}],"outputs":[{"name":"result","type":"uint8[]","internalType":"uint8[]"}],"stateMutability":"view"},{"type":"function","name":"owner","inputs":[],"outputs":[{"name":"","type":"address","internalType":"address"}],"stateMutability":"view"},{"type":"function","name":"pendingOwner","inputs":[],"outputs":[{"name":"","type":"address","internalType":"address"}],"stateMutability":"view"},{"type":"function","name":"proposeOwner","inputs":[{"name":"candidate","type":"address","internalType":"address"}],"outputs":[],"stateMutability":"nonpayable"},{"type":"function","name":"setTier","inputs":[{"name":"wallet","type":"address","internalType":"address"},{"name":"tier","type":"uint8","internalType":"uint8"}],"outputs":[],"stateMutability":"nonpayable"},{"type":"function","name":"setTierBatch","inputs":[{"name":"wallets","type":"address[]","internalType":"address[]"},{"name":"newTiers","type":"uint8[]","internalType":"uint8[]"}],"outputs":[],"stateMutability":"nonpayable"},{"type":"function","name":"setUpdater","inputs":[{"name":"newUpdater","type":"address","internalType":"address"}],"outputs":[],"stateMutability":"nonpayable"},{"type":"function","name":"updater","inputs":[],"outputs":[{"name":"","type":"address","internalType":"address"}],"stateMutability":"view"},{"type":"event","name":"OwnershipTransferCancelled","inputs":[{"name":"cancelledCandidate","type":"address","indexed":true,"internalType":"address"}],"anonymous":false},{"type":"event","name":"OwnershipTransferOverwritten","inputs":[{"name":"displaced","type":"address","indexed":true,"internalType":"address"},{"name":"replacement","type":"address","indexed":true,"internalType":"address"}],"anonymous":false},{"type":"event","name":"OwnershipTransferProposed","inputs":[{"name":"currentOwner","type":"address","indexed":true,"internalType":"address"},{"name":"pendingOwner","type":"address","indexed":true,"internalType":"address"}],"anonymous":false},{"type":"event","name":"OwnershipTransferred","inputs":[{"name":"oldOwner","type":"address","indexed":true,"internalType":"address"},{"name":"newOwner","type":"address","indexed":true,"internalType":"address"}],"anonymous":false},{"type":"event","name":"TierDeleted","inputs":[{"name":"wallet","type":"address","indexed":true,"internalType":"address"},{"name":"oldTier","type":"uint8","indexed":false,"internalType":"uint8"}],"anonymous":false},{"type":"event","name":"TierUpdated","inputs":[{"name":"wallet","type":"address","indexed":true,"internalType":"address"},{"name":"oldTier","type":"uint8","indexed":false,"internalType":"uint8"},{"name":"newTier","type":"uint8","indexed":false,"internalType":"uint8"}],"anonymous":false},{"type":"event","name":"UpdaterChanged","inputs":[{"name":"oldUpdater","type":"address","indexed":true,"internalType":"address"},{"name":"newUpdater","type":"address","indexed":true,"internalType":"address"}],"anonymous":false},{"type":"error","name":"BatchTooLarge","inputs":[{"name":"length","type":"uint256","internalType":"uint256"}]},{"type":"error","name":"LengthMismatch","inputs":[]},{"type":"error","name":"NoChange","inputs":[]},{"type":"error","name":"NoPendingTransfer","inputs":[]},{"type":"error","name":"NotOwner","inputs":[]},{"type":"error","name":"NotPendingOwner","inputs":[]},{"type":"error","name":"NotUpdater","inputs":[]},{"type":"error","name":"TierNotSet","inputs":[]},{"type":"error","name":"TierOutOfRange","inputs":[{"name":"tier","type":"uint8","internalType":"uint8"}]},{"type":"error","name":"ZeroAddress","inputs":[]}],"bytecode":{"object":"0x608060405234801561001057600080fd5b50604051610e99380380610e9983398101604081905261002f916100cd565b600080546001600160a01b0319163390811782556040519091907f8be0079c531659141344cd1fd0a4f28419497f9722a3daafe3b4186f6b6457e0908290a36001600160a01b038116156100c757600280546001600160a01b0319166001600160a01b0383169081179091556040516000907f662a4a4a892f5f13cf7ee050fdaa045f8641601fdbc843e8a71f418099cacd4e908290a35b506100fd565b6000602082840312156100df57600080fd5b81516001600160a01b03811681146100f657600080fd5b9392505050565b610d8d8061010c6000396000f3fe608060405234801561001057600080fd5b50600436106101215760003560e01c8063950bff9f116100ad578063b45aae5211610071578063b45aae521461023f578063b5ed298a1461026b578063df034cd01461027e578063e30c397814610291578063fbb0c34c146102a457600080fd5b8063950bff9f146101cb5780639d54f419146101e15780639e9dc4e0146101f4578063b243b49814610217578063b26914d01461023757600080fd5b80634e2b9b8f116100f45780634e2b9b8f1461016a57806351ae71fb1461017d57806379ba5097146101855780638da5cb5b1461018d57806393e2282d146101b857600080fd5b806323452b9c1461012657806325d70f781461013057806336cff09f1461014f57806347393c4814610157575b600080fd5b61012e6102ac565b005b610138600481565b60405160ff90911681526020015b60405180910390f35b610138600081565b61012e610165366004610b69565b610329565b61012e610178366004610bd7565b6103f0565b610138600381565b61012e6106bb565b6000546101a0906001600160a01b031681565b6040516001600160a01b039091168152602001610146565b61012e6101c6366004610c54565b610740565b6101d360c881565b604051908152602001610146565b61012e6101ef366004610b69565b610844565b610207610202366004610c54565b61089e565b6040519015158152602001610146565b61022a610225366004610c87565b61094f565b6040516101469190610cc9565b610138600281565b61013861024d366004610b69565b6001600160a01b031660009081526003602052604090205460ff1690565b61012e610279366004610b69565b610a21565b6002546101a0906001600160a01b031681565b6001546101a0906001600160a01b031681565b610138600181565b6102b4610af5565b6001546001600160a01b03166102dd5760405163357a03ed60e21b815260040160405180910390fd5b600180546001600160a01b031981169091556040516001600160a01b039091169081907f48a87225523c5fd46bf3b7da3223e5525f77b8136a962695d701a24699bef8f390600090a250565b610331610b22565b6001600160a01b0381166103585760405163d92e233d60e01b815260040160405180910390fd5b6001600160a01b03811660009081526003602052604081205460ff1690819003610395576040516304f60b8560e11b815260040160405180910390fd5b6001600160a01b038216600081815260036020908152604091829020805460ff19169055905160ff841681527f937a9f01327dea292c697bf6aac43b6fd6766ab7535dfdc0eaa2f1d0efaef0e1910160405180910390a25050565b6103f8610b22565b82811461041b576040516001621398b960e31b0319815260040160405180910390fd5b60c88311156104455760405163533dcfcf60e11b8152600481018490526024015b60405180910390fd5b60005b838110156106b457600085858381811061046457610464610d10565b90506020020160208101906104799190610b69565b6001600160a01b0316036104a05760405163d92e233d60e01b815260040160405180910390fd5b60048383838181106104b4576104b4610d10565b90506020020160208101906104c99190610d26565b60ff161115610518578282828181106104e4576104e4610d10565b90506020020160208101906104f99190610d26565b604051630921374b60e21b815260ff909116600482015260240161043c565b60006003600087878581811061053057610530610d10565b90506020020160208101906105459190610b69565b6001600160a01b0316815260208101919091526040016000205460ff16905083838381811061057657610576610d10565b905060200201602081019061058b9190610d26565b60ff168160ff16146106ab578383838181106105a9576105a9610d10565b90506020020160208101906105be9190610d26565b600360008888868181106105d4576105d4610d10565b90506020020160208101906105e99190610b69565b6001600160a01b031681526020810191909152604001600020805460ff191660ff9290921691909117905585858381811061062657610626610d10565b905060200201602081019061063b9190610b69565b6001600160a01b03167f088bb4000d4f986d320e37aeeddc92836b4acae65c337abd0b79067096d33fce8286868681811061067857610678610d10565b905060200201602081019061068d9190610d26565b6040805160ff93841681529290911660208301520160405180910390a25b50600101610448565b5050505050565b6001546001600160a01b031633146106e657604051630614e5c760e21b815260040160405180910390fd5b60008054600180546001600160a01b038082166001600160a01b031980861682178755909216909255604051919092169283917f8be0079c531659141344cd1fd0a4f28419497f9722a3daafe3b4186f6b6457e09190a350565b610748610b22565b6001600160a01b03821661076f5760405163d92e233d60e01b815260040160405180910390fd5b600460ff8216111561079957604051630921374b60e21b815260ff8216600482015260240161043c565b6001600160a01b03821660009081526003602052604090205460ff90811690821681036107d95760405163a88ee57760e01b815260040160405180910390fd5b6001600160a01b038316600081815260036020908152604091829020805460ff191660ff87811691821790925583519186168252918101919091527f088bb4000d4f986d320e37aeeddc92836b4acae65c337abd0b79067096d33fce910160405180910390a2505050565b61084c610af5565b600280546001600160a01b038381166001600160a01b0319831681179093556040519116919082907f662a4a4a892f5f13cf7ee050fdaa045f8641601fdbc843e8a71f418099cacd4e90600090a35050565b6001600160a01b03821660009081526003602052604081205460ff9081169083166108d35760028160ff161015915050610949565b60001960ff8416016108ef5760028160ff161015915050610949565b60011960ff84160161090b5760038160ff161015915050610949565b60021960ff8416016109275760038160ff161015915050610949565b60031960ff8416016109435760028160ff161015915050610949565b60009150505b92915050565b60608167ffffffffffffffff81111561096a5761096a610d41565b604051908082528060200260200182016040528015610993578160200160208202803683370190505b50905060005b82811015610a1a57600360008585848181106109b7576109b7610d10565b90506020020160208101906109cc9190610b69565b6001600160a01b03168152602081019190915260400160002054825160ff90911690839083908110610a0057610a00610d10565b60ff90921660209283029190910190910152600101610999565b5092915050565b610a29610af5565b6001600160a01b038116610a505760405163d92e233d60e01b815260040160405180910390fd5b6001546001600160a01b03168015610aa357816001600160a01b0316816001600160a01b03167f0420eb4f0a58116dfcfdfc3852414178727528095271efb537dcca5ace8131ec60405160405180910390a35b600180546001600160a01b0319166001600160a01b0384811691821790925560008054604051929316917ff4e75b79500ab730f8a026ed3cba6d55331bcb64c9e9f60c548e371356e5e3c09190a35050565b6000546001600160a01b03163314610b20576040516330cd747160e01b815260040160405180910390fd5b565b6002546001600160a01b03163314610b2057604051639a280f3960e01b815260040160405180910390fd5b80356001600160a01b0381168114610b6457600080fd5b919050565b600060208284031215610b7b57600080fd5b610b8482610b4d565b9392505050565b60008083601f840112610b9d57600080fd5b50813567ffffffffffffffff811115610bb557600080fd5b6020830191508360208260051b8501011115610bd057600080fd5b9250929050565b60008060008060408587031215610bed57600080fd5b843567ffffffffffffffff80821115610c0557600080fd5b610c1188838901610b8b565b90965094506020870135915080821115610c2a57600080fd5b50610c3787828801610b8b565b95989497509550505050565b803560ff81168114610b6457600080fd5b60008060408385031215610c6757600080fd5b610c7083610b4d565b9150610c7e60208401610c43565b90509250929050565b60008060208385031215610c9a57600080fd5b823567ffffffffffffffff811115610cb157600080fd5b610cbd85828601610b8b565b90969095509350505050565b6020808252825182820181905260009190848201906040850190845b81811015610d0457835160ff1683529284019291840191600101610ce5565b50909695505050505050565b634e487b7160e01b600052603260045260246000fd5b600060208284031215610d3857600080fd5b610b8482610c43565b634e487b7160e01b600052604160045260246000fdfea26469706673582212201f1e61f4c2fe84e0931556be81af158d482b0326f8951335fc496afe3b0aea8564736f6c63430008130033","linkReferences":{}},"methodIdentifiers":{"ACTION_BASIC()":"36cff09f","ACTION_GOVERN()":"51ae71fb","ACTION_LEVERAGE()":"b26914d0","ACTION_TRADE()":"fbb0c34c","ACTION_WITHDRAW()":"25d70f78","MAX_BATCH()":"950bff9f","acceptOwnership()":"79ba5097","can(address,uint8)":"9e9dc4e0","cancelOwnershipTransfer()":"23452b9c","deleteTier(address)":"47393c48","getTier(address)":"b45aae52","getTierBatch(address[])":"b243b498","owner()":"8da5cb5b","pendingOwner()":"e30c3978","proposeOwner(address)":"b5ed298a","setTier(address,uint8)":"93e2282d","setTierBatch(address[],uint8[])":"4e2b9b8f","setUpdater(address)":"9d54f419","updater()":"df034cd0"},"id":19}